{
  "_format": "hh-sol-artifact-1",
  "contractName": "BankRunner",
  "sourceName": "contracts/BankRunner.sol",
  "abi": [
    {
      "inputs": [
        {
          "internalType": "string",
          "name": "_tokenURI",
          "type": "string"
        },
        {
          "internalType": "address",
          "name": "_titanAddress",
          "type": "address"
        }
      ],
      "stateMutability": "nonpayable",
      "type": "constructor"
    },
    {
      "anonymous": false,
      "inputs": [
        {
          "indexed": true,
          "internalType": "address",
          "name": "owner",
          "type": "address"
        },
        {
          "indexed": true,
          "internalType": "address",
          "name": "approved",
          "type": "address"
        },
        {
          "indexed": true,
          "internalType": "uint256",
          "name": "tokenId",
          "type": "uint256"
        }
      ],
      "name": "Approval",
      "type": "event"
    },
    {
      "anonymous": false,
      "inputs": [
        {
          "indexed": true,
          "internalType": "address",
          "name": "owner",
          "type": "address"
        },
        {
          "indexed": true,
          "internalType": "address",
          "name": "operator",
          "type": "address"
        },
        {
          "indexed": false,
          "internalType": "bool",
          "name": "approved",
          "type": "bool"
        }
      ],
      "name": "ApprovalForAll",
      "type": "event"
    },
    {
      "anonymous": false,
      "inputs": [
        {
          "indexed": true,
          "internalType": "address",
          "name": "from",
          "type": "address"
        },
        {
          "indexed": true,
          "internalType": "address",
          "name": "to",
          "type": "address"
        },
        {
          "indexed": true,
          "internalType": "uint256",
          "name": "tokenId",
          "type": "uint256"
        }
      ],
      "name": "Transfer",
      "type": "event"
    },
    {
      "inputs": [
        {
          "internalType": "address",
          "name": "to",
          "type": "address"
        },
        {
          "internalType": "uint256",
          "name": "tokenId",
          "type": "uint256"
        }
      ],
      "name": "approve",
      "outputs": [],
      "stateMutability": "nonpayable",
      "type": "function"
    },
    {
      "inputs": [
        {
          "internalType": "address",
          "name": "owner",
          "type": "address"
        }
      ],
      "name": "balanceOf",
      "outputs": [
        {
          "internalType": "uint256",
          "name": "",
          "type": "uint256"
        }
      ],
      "stateMutability": "view",
      "type": "function"
    },
    {
      "inputs": [
        {
          "internalType": "uint256",
          "name": "tokenId",
          "type": "uint256"
        }
      ],
      "name": "getApproved",
      "outputs": [
        {
          "internalType": "address",
          "name": "",
          "type": "address"
        }
      ],
      "stateMutability": "view",
      "type": "function"
    },
    {
      "inputs": [],
      "name": "hasBalance",
      "outputs": [
        {
          "internalType": "bool",
          "name": "",
          "type": "bool"
        }
      ],
      "stateMutability": "view",
      "type": "function"
    },
    {
      "inputs": [],
      "name": "internalTokenURI",
      "outputs": [
        {
          "internalType": "string",
          "name": "",
          "type": "string"
        }
      ],
      "stateMutability": "view",
      "type": "function"
    },
    {
      "inputs": [
        {
          "internalType": "address",
          "name": "owner",
          "type": "address"
        },
        {
          "internalType": "address",
          "name": "operator",
          "type": "address"
        }
      ],
      "name": "isApprovedForAll",
      "outputs": [
        {
          "internalType": "bool",
          "name": "",
          "type": "bool"
        }
      ],
      "stateMutability": "view",
      "type": "function"
    },
    {
      "inputs": [],
      "name": "mintCollectible",
      "outputs": [
        {
          "internalType": "uint256",
          "name": "",
          "type": "uint256"
        }
      ],
      "stateMutability": "nonpayable",
      "type": "function"
    },
    {
      "inputs": [
        {
          "internalType": "address",
          "name": "",
          "type": "address"
        }
      ],
      "name": "minted",
      "outputs": [
        {
          "internalType": "bool",
          "name": "",
          "type": "bool"
        }
      ],
      "stateMutability": "view",
      "type": "function"
    },
    {
      "inputs": [],
      "name": "name",
      "outputs": [
        {
          "internalType": "string",
          "name": "",
          "type": "string"
        }
      ],
      "stateMutability": "view",
      "type": "function"
    },
    {
      "inputs": [
        {
          "internalType": "uint256",
          "name": "tokenId",
          "type": "uint256"
        }
      ],
      "name": "ownerOf",
      "outputs": [
        {
          "internalType": "address",
          "name": "",
          "type": "address"
        }
      ],
      "stateMutability": "view",
      "type": "function"
    },
    {
      "inputs": [
        {
          "internalType": "address",
          "name": "from",
          "type": "address"
        },
        {
          "internalType": "address",
          "name": "to",
          "type": "address"
        },
        {
          "internalType": "uint256",
          "name": "tokenId",
          "type": "uint256"
        }
      ],
      "name": "safeTransferFrom",
      "outputs": [],
      "stateMutability": "nonpayable",
      "type": "function"
    },
    {
      "inputs": [
        {
          "internalType": "address",
          "name": "from",
          "type": "address"
        },
        {
          "internalType": "address",
          "name": "to",
          "type": "address"
        },
        {
          "internalType": "uint256",
          "name": "tokenId",
          "type": "uint256"
        },
        {
          "internalType": "bytes",
          "name": "_data",
          "type": "bytes"
        }
      ],
      "name": "safeTransferFrom",
      "outputs": [],
      "stateMutability": "nonpayable",
      "type": "function"
    },
    {
      "inputs": [
        {
          "internalType": "address",
          "name": "operator",
          "type": "address"
        },
        {
          "internalType": "bool",
          "name": "approved",
          "type": "bool"
        }
      ],
      "name": "setApprovalForAll",
      "outputs": [],
      "stateMutability": "nonpayable",
      "type": "function"
    },
    {
      "inputs": [
        {
          "internalType": "bytes4",
          "name": "interfaceId",
          "type": "bytes4"
        }
      ],
      "name": "supportsInterface",
      "outputs": [
        {
          "internalType": "bool",
          "name": "",
          "type": "bool"
        }
      ],
      "stateMutability": "view",
      "type": "function"
    },
    {
      "inputs": [],
      "name": "symbol",
      "outputs": [
        {
          "internalType": "string",
          "name": "",
          "type": "string"
        }
      ],
      "stateMutability": "view",
      "type": "function"
    },
    {
      "inputs": [],
      "name": "titanToken",
      "outputs": [
        {
          "internalType": "contract IERC20",
          "name": "",
          "type": "address"
        }
      ],
      "stateMutability": "view",
      "type": "function"
    },
    {
      "inputs": [],
      "name": "tokenCounter",
      "outputs": [
        {
          "internalType": "uint256",
          "name": "",
          "type": "uint256"
        }
      ],
      "stateMutability": "view",
      "type": "function"
    },
    {
      "inputs": [
        {
          "internalType": "uint256",
          "name": "tokenId",
          "type": "uint256"
        }
      ],
      "name": "tokenURI",
      "outputs": [
        {
          "internalType": "string",
          "name": "",
          "type": "string"
        }
      ],
      "stateMutability": "view",
      "type": "function"
    },
    {
      "inputs": [
        {
          "internalType": "address",
          "name": "from",
          "type": "address"
        },
        {
          "internalType": "address",
          "name": "to",
          "type": "address"
        },
        {
          "internalType": "uint256",
          "name": "tokenId",
          "type": "uint256"
        }
      ],
      "name": "transferFrom",
      "outputs": [],
      "stateMutability": "nonpayable",
      "type": "function"
    }
  ],
  "bytecode": "0x60806040523480156200001157600080fd5b506040516200354838038062003548833981810160405281019062000037919062000286565b6040518060400160405280600a81526020017f42616e6b52756e6e6572000000000000000000000000000000000000000000008152506040518060400160405280600381526020017f42525200000000000000000000000000000000000000000000000000000000008152508160009080519060200190620000bb92919062000141565b508060019080519060200190620000d492919062000141565b50505060006007819055508160089080519060200190620000f792919062000141565b5080600960006101000a81548173ffffffffffffffffffffffffffffffffffffffff021916908373ffffffffffffffffffffffffffffffffffffffff1602179055505050620004be565b8280546200014f90620003b5565b90600052602060002090601f016020900481019282620001735760008555620001bf565b82601f106200018e57805160ff1916838001178555620001bf565b82800160010185558215620001bf579182015b82811115620001be578251825591602001919060010190620001a1565b5b509050620001ce9190620001d2565b5090565b5b80821115620001ed576000816000905550600101620001d3565b5090565b600062000208620002028462000315565b620002ec565b90508281526020810184848401111562000227576200022662000484565b5b620002348482856200037f565b509392505050565b6000815190506200024d81620004a4565b92915050565b600082601f8301126200026b576200026a6200047f565b5b81516200027d848260208601620001f1565b91505092915050565b60008060408385031215620002a0576200029f6200048e565b5b600083015167ffffffffffffffff811115620002c157620002c062000489565b5b620002cf8582860162000253565b9250506020620002e2858286016200023c565b9150509250929050565b6000620002f86200030b565b9050620003068282620003eb565b919050565b6000604051905090565b600067ffffffffffffffff82111562000333576200033262000450565b5b6200033e8262000493565b9050602081019050919050565b600062000358826200035f565b9050919050565b600073ffffffffffffffffffffffffffffffffffffffff82169050919050565b60005b838110156200039f57808201518184015260208101905062000382565b83811115620003af576000848401525b50505050565b60006002820490506001821680620003ce57607f821691505b60208210811415620003e557620003e462000421565b5b50919050565b620003f68262000493565b810181811067ffffffffffffffff8211171562000418576200041762000450565b5b80604052505050565b7f4e487b7100000000000000000000000000000000000000000000000000000000600052602260045260246000fd5b7f4e487b7100000000000000000000000000000000000000000000000000000000600052604160045260246000fd5b600080fd5b600080fd5b600080fd5b600080fd5b6000601f19601f8301169050919050565b620004af816200034b565b8114620004bb57600080fd5b50565b61307a80620004ce6000396000f3fe608060405234801561001057600080fd5b50600436106101215760003560e01c806395d89b41116100ad578063d082e38111610071578063d082e3811461032c578063de76299d1461034a578063e985e9c514610368578063f260ad0514610398578063f919594b146103b657610121565b806395d89b4114610288578063a22cb465146102a6578063b1710ef9146102c2578063b88d4fde146102e0578063c87b56dd146102fc57610121565b80631e7269c5116100f45780631e7269c5146101c057806323b872dd146101f057806342842e0e1461020c5780636352211e1461022857806370a082311461025857610121565b806301ffc9a71461012657806306fdde0314610156578063081812fc14610174578063095ea7b3146101a4575b600080fd5b610140600480360381019061013b9190611fb6565b6103d4565b60405161014d919061244a565b60405180910390f35b61015e6104b6565b60405161016b9190612480565b60405180910390f35b61018e60048036038101906101899190612010565b610548565b60405161019b91906123e3565b60405180910390f35b6101be60048036038101906101b99190611f76565b6105cd565b005b6101da60048036038101906101d59190611df3565b6106e5565b6040516101e7919061244a565b60405180910390f35b61020a60048036038101906102059190611e60565b610705565b005b61022660048036038101906102219190611e60565b610765565b005b610242600480360381019061023d9190612010565b610785565b60405161024f91906123e3565b60405180910390f35b610272600480360381019061026d9190611df3565b610837565b60405161027f91906126e2565b60405180910390f35b6102906108ef565b60405161029d9190612480565b60405180910390f35b6102c060048036038101906102bb9190611f36565b610981565b005b6102ca610b02565b6040516102d7919061244a565b60405180910390f35b6102fa60048036038101906102f59190611eb3565b610bb6565b005b61031660048036038101906103119190612010565b610c18565b6040516103239190612480565b60405180910390f35b610334610d6a565b60405161034191906126e2565b60405180910390f35b610352610d70565b60405161035f9190612480565b60405180910390f35b610382600480360381019061037d9190611e20565b610dfe565b60405161038f919061244a565b60405180910390f35b6103a0610e92565b6040516103ad9190612465565b60405180910390f35b6103be610eb8565b6040516103cb91906126e2565b60405180910390f35b60007f80ac58cd000000000000000000000000000000000000000000000000000000007bffffffffffffffffffffffffffffffffffffffffffffffffffffffff1916827bffffffffffffffffffffffffffffffffffffffffffffffffffffffff1916148061049f57507f5b5e139f000000000000000000000000000000000000000000000000000000007bffffffffffffffffffffffffffffffffffffffffffffffffffffffff1916827bffffffffffffffffffffffffffffffffffffffffffffffffffffffff1916145b806104af57506104ae826110ac565b5b9050919050565b6060600080546104c59061292b565b80601f01602080910402602001604051908101604052809291908181526020018280546104f19061292b565b801561053e5780601f106105135761010080835404028352916020019161053e565b820191906000526020600020905b81548152906001019060200180831161052157829003601f168201915b5050505050905090565b600061055382611116565b610592576040517f08c379a000000000000000000000000000000000000000000000000000000000815260040161058990612642565b60405180910390fd5b6004600083815260200190815260200160002060009054906101000a900473ffffffffffffffffffffffffffffffffffffffff169050919050565b60006105d882610785565b90508073ffffffffffffffffffffffffffffffffffffffff168373ffffffffffffffffffffffffffffffffffffffff161415610649576040517f08c379a0000000000000000000000000000000000000000000000000000000008152600401610640906126a2565b60405180910390fd5b8073ffffffffffffffffffffffffffffffffffffffff16610668611182565b73ffffffffffffffffffffffffffffffffffffffff161480610697575061069681610691611182565b610dfe565b5b6106d6576040517f08c379a00000000000000000000000000000000000000000000000000000000081526004016106cd90612582565b60405180910390fd5b6106e0838361118a565b505050565b600a6020528060005260406000206000915054906101000a900460ff1681565b610716610710611182565b82611243565b610755576040517f08c379a000000000000000000000000000000000000000000000000000000000815260040161074c906126c2565b60405180910390fd5b610760838383611321565b505050565b61078083838360405180602001604052806000815250610bb6565b505050565b6000806002600084815260200190815260200160002060009054906101000a900473ffffffffffffffffffffffffffffffffffffffff169050600073ffffffffffffffffffffffffffffffffffffffff168173ffffffffffffffffffffffffffffffffffffffff16141561082e576040517f08c379a0000000000000000000000000000000000000000000000000000000008152600401610825906125c2565b60405180910390fd5b80915050919050565b60008073ffffffffffffffffffffffffffffffffffffffff168273ffffffffffffffffffffffffffffffffffffffff1614156108a8576040517f08c379a000000000000000000000000000000000000000000000000000000000815260040161089f906125a2565b60405180910390fd5b600360008373ffffffffffffffffffffffffffffffffffffffff1673ffffffffffffffffffffffffffffffffffffffff168152602001908152602001600020549050919050565b6060600180546108fe9061292b565b80601f016020809104026020016040519081016040528092919081815260200182805461092a9061292b565b80156109775780601f1061094c57610100808354040283529160200191610977565b820191906000526020600020905b81548152906001019060200180831161095a57829003601f168201915b5050505050905090565b610989611182565b73ffffffffffffffffffffffffffffffffffffffff168273ffffffffffffffffffffffffffffffffffffffff1614156109f7576040517f08c379a00000000000000000000000000000000000000000000000000000000081526004016109ee90612542565b60405180910390fd5b8060056000610a04611182565b73ffffffffffffffffffffffffffffffffffffffff1673ffffffffffffffffffffffffffffffffffffffff16815260200190815260200160002060008473ffffffffffffffffffffffffffffffffffffffff1673ffffffffffffffffffffffffffffffffffffffff16815260200190815260200160002060006101000a81548160ff0219169083151502179055508173ffffffffffffffffffffffffffffffffffffffff16610ab1611182565b73ffffffffffffffffffffffffffffffffffffffff167f17307eab39ab6107e8899845ad3d59bd9653f200f220920489ca2b5937696c3183604051610af6919061244a565b60405180910390a35050565b600080600960009054906101000a900473ffffffffffffffffffffffffffffffffffffffff1673ffffffffffffffffffffffffffffffffffffffff166370a08231336040518263ffffffff1660e01b8152600401610b6091906123e3565b60206040518083038186803b158015610b7857600080fd5b505afa158015610b8c573d6000803e3d6000fd5b505050506040513d601f19601f82011682018060405250810190610bb0919061203d565b11905090565b610bc7610bc1611182565b83611243565b610c06576040517f08c379a0000000000000000000000000000000000000000000000000000000008152600401610bfd906126c2565b60405180910390fd5b610c128484848461157d565b50505050565b6060610c2382611116565b610c62576040517f08c379a0000000000000000000000000000000000000000000000000000000008152600401610c5990612622565b60405180910390fd5b6000600660008481526020019081526020016000208054610c829061292b565b80601f0160208091040260200160405190810160405280929190818152602001828054610cae9061292b565b8015610cfb5780601f10610cd057610100808354040283529160200191610cfb565b820191906000526020600020905b815481529060010190602001808311610cde57829003601f168201915b505050505090506000610d0c6115d9565b9050600081511415610d22578192505050610d65565b600082511115610d57578082604051602001610d3f9291906123bf565b60405160208183030381529060405292505050610d65565b610d60846115f0565b925050505b919050565b60075481565b60088054610d7d9061292b565b80601f0160208091040260200160405190810160405280929190818152602001828054610da99061292b565b8015610df65780601f10610dcb57610100808354040283529160200191610df6565b820191906000526020600020905b815481529060010190602001808311610dd957829003601f168201915b505050505081565b6000600560008473ffffffffffffffffffffffffffffffffffffffff1673ffffffffffffffffffffffffffffffffffffffff16815260200190815260200160002060008373ffffffffffffffffffffffffffffffffffffffff1673ffffffffffffffffffffffffffffffffffffffff16815260200190815260200160002060009054906101000a900460ff16905092915050565b600960009054906101000a900473ffffffffffffffffffffffffffffffffffffffff1681565b60006103e860075410610f00576040517f08c379a0000000000000000000000000000000000000000000000000000000008152600401610ef7906124e2565b60405180910390fd5b60001515600a60003373ffffffffffffffffffffffffffffffffffffffff1673ffffffffffffffffffffffffffffffffffffffff16815260200190815260200160002060009054906101000a900460ff16151514610f93576040517f08c379a0000000000000000000000000000000000000000000000000000000008152600401610f8a90612522565b60405180910390fd5b6001600a60003373ffffffffffffffffffffffffffffffffffffffff1673ffffffffffffffffffffffffffffffffffffffff16815260200190815260200160002060006101000a81548160ff02191690831515021790555060006007549050610ffc3382611697565b611090816008805461100d9061292b565b80601f01602080910402602001604051908101604052809291908181526020018280546110399061292b565b80156110865780601f1061105b57610100808354040283529160200191611086565b820191906000526020600020905b81548152906001019060200180831161106957829003601f168201915b50505050506116b5565b600160075461109f9190612796565b6007819055508091505090565b60007f01ffc9a7000000000000000000000000000000000000000000000000000000007bffffffffffffffffffffffffffffffffffffffffffffffffffffffff1916827bffffffffffffffffffffffffffffffffffffffffffffffffffffffff1916149050919050565b60008073ffffffffffffffffffffffffffffffffffffffff166002600084815260200190815260200160002060009054906101000a900473ffffffffffffffffffffffffffffffffffffffff1673ffffffffffffffffffffffffffffffffffffffff1614159050919050565b600033905090565b816004600083815260200190815260200160002060006101000a81548173ffffffffffffffffffffffffffffffffffffffff021916908373ffffffffffffffffffffffffffffffffffffffff160217905550808273ffffffffffffffffffffffffffffffffffffffff166111fd83610785565b73ffffffffffffffffffffffffffffffffffffffff167f8c5be1e5ebec7d5bd14f71427d1e84f3dd0314c0f7b2291e5b200ac8c7c3b92560405160405180910390a45050565b600061124e82611116565b61128d576040517f08c379a000000000000000000000000000000000000000000000000000000000815260040161128490612562565b60405180910390fd5b600061129883610785565b90508073ffffffffffffffffffffffffffffffffffffffff168473ffffffffffffffffffffffffffffffffffffffff16148061130757508373ffffffffffffffffffffffffffffffffffffffff166112ef84610548565b73ffffffffffffffffffffffffffffffffffffffff16145b8061131857506113178185610dfe565b5b91505092915050565b8273ffffffffffffffffffffffffffffffffffffffff1661134182610785565b73ffffffffffffffffffffffffffffffffffffffff1614611397576040517f08c379a000000000000000000000000000000000000000000000000000000000815260040161138e90612662565b60405180910390fd5b600073ffffffffffffffffffffffffffffffffffffffff168273ffffffffffffffffffffffffffffffffffffffff161415611407576040517f08c379a00000000000000000000000000000000000000000000000000000000081526004016113fe90612502565b60405180910390fd5b611412838383611729565b61141d60008261118a565b6001600360008573ffffffffffffffffffffffffffffffffffffffff1673ffffffffffffffffffffffffffffffffffffffff168152602001908152602001600020600082825461146d919061281d565b925050819055506001600360008473ffffffffffffffffffffffffffffffffffffffff1673ffffffffffffffffffffffffffffffffffffffff16815260200190815260200160002060008282546114c49190612796565b92505081905550816002600083815260200190815260200160002060006101000a81548173ffffffffffffffffffffffffffffffffffffffff021916908373ffffffffffffffffffffffffffffffffffffffff160217905550808273ffffffffffffffffffffffffffffffffffffffff168473ffffffffffffffffffffffffffffffffffffffff167fddf252ad1be2c89b69c2b068fc378daa952ba7f163c4a11628f55a4df523b3ef60405160405180910390a4505050565b611588848484611321565b6115948484848461172e565b6115d3576040517f08c379a00000000000000000000000000000000000000000000000000000000081526004016115ca906124a2565b60405180910390fd5b50505050565b606060405180602001604052806000815250905090565b60606115fb82611116565b61163a576040517f08c379a000000000000000000000000000000000000000000000000000000000815260040161163190612682565b60405180910390fd5b60006116446115d9565b90506000815111611664576040518060200160405280600081525061168f565b8061166e846118c5565b60405160200161167f9291906123bf565b6040516020818303038152906040525b915050919050565b6116b1828260405180602001604052806000815250611a26565b5050565b6116be82611116565b6116fd576040517f08c379a00000000000000000000000000000000000000000000000000000000081526004016116f4906125e2565b60405180910390fd5b80600660008481526020019081526020016000209080519060200190611724929190611c62565b505050565b505050565b600061174f8473ffffffffffffffffffffffffffffffffffffffff16611a81565b156118b8578373ffffffffffffffffffffffffffffffffffffffff1663150b7a02611778611182565b8786866040518563ffffffff1660e01b815260040161179a94939291906123fe565b602060405180830381600087803b1580156117b457600080fd5b505af19250505080156117e557506040513d601f19601f820116820180604052508101906117e29190611fe3565b60015b611868573d8060008114611815576040519150601f19603f3d011682016040523d82523d6000602084013e61181a565b606091505b50600081511415611860576040517f08c379a0000000000000000000000000000000000000000000000000000000008152600401611857906124a2565b60405180910390fd5b805181602001fd5b63150b7a0260e01b7bffffffffffffffffffffffffffffffffffffffffffffffffffffffff1916817bffffffffffffffffffffffffffffffffffffffffffffffffffffffff1916149150506118bd565b600190505b949350505050565b6060600082141561190d576040518060400160405280600181526020017f30000000000000000000000000000000000000000000000000000000000000008152509050611a21565b600082905060005b6000821461193f5780806119289061298e565b915050600a8261193891906127ec565b9150611915565b60008167ffffffffffffffff81111561195b5761195a612ac4565b5b6040519080825280601f01601f19166020018201604052801561198d5781602001600182028036833780820191505090505b5090505b60008514611a1a576001826119a6919061281d565b9150600a856119b591906129d7565b60306119c19190612796565b60f81b8183815181106119d7576119d6612a95565b5b60200101907effffffffffffffffffffffffffffffffffffffffffffffffffffffffffffff1916908160001a905350600a85611a1391906127ec565b9450611991565b8093505050505b919050565b611a308383611a94565b611a3d600084848461172e565b611a7c576040517f08c379a0000000000000000000000000000000000000000000000000000000008152600401611a73906124a2565b60405180910390fd5b505050565b600080823b905060008111915050919050565b600073ffffffffffffffffffffffffffffffffffffffff168273ffffffffffffffffffffffffffffffffffffffff161415611b04576040517f08c379a0000000000000000000000000000000000000000000000000000000008152600401611afb90612602565b60405180910390fd5b611b0d81611116565b15611b4d576040517f08c379a0000000000000000000000000000000000000000000000000000000008152600401611b44906124c2565b60405180910390fd5b611b5960008383611729565b6001600360008473ffffffffffffffffffffffffffffffffffffffff1673ffffffffffffffffffffffffffffffffffffffff1681526020019081526020016000206000828254611ba99190612796565b92505081905550816002600083815260200190815260200160002060006101000a81548173ffffffffffffffffffffffffffffffffffffffff021916908373ffffffffffffffffffffffffffffffffffffffff160217905550808273ffffffffffffffffffffffffffffffffffffffff16600073ffffffffffffffffffffffffffffffffffffffff167fddf252ad1be2c89b69c2b068fc378daa952ba7f163c4a11628f55a4df523b3ef60405160405180910390a45050565b828054611c6e9061292b565b90600052602060002090601f016020900481019282611c905760008555611cd7565b82601f10611ca957805160ff1916838001178555611cd7565b82800160010185558215611cd7579182015b82811115611cd6578251825591602001919060010190611cbb565b5b509050611ce49190611ce8565b5090565b5b80821115611d01576000816000905550600101611ce9565b5090565b6000611d18611d1384612722565b6126fd565b905082815260208101848484011115611d3457611d33612af8565b5b611d3f8482856128e9565b509392505050565b600081359050611d5681612fe8565b92915050565b600081359050611d6b81612fff565b92915050565b600081359050611d8081613016565b92915050565b600081519050611d9581613016565b92915050565b600082601f830112611db057611daf612af3565b5b8135611dc0848260208601611d05565b91505092915050565b600081359050611dd88161302d565b92915050565b600081519050611ded8161302d565b92915050565b600060208284031215611e0957611e08612b02565b5b6000611e1784828501611d47565b91505092915050565b60008060408385031215611e3757611e36612b02565b5b6000611e4585828601611d47565b9250506020611e5685828601611d47565b9150509250929050565b600080600060608486031215611e7957611e78612b02565b5b6000611e8786828701611d47565b9350506020611e9886828701611d47565b9250506040611ea986828701611dc9565b9150509250925092565b60008060008060808587031215611ecd57611ecc612b02565b5b6000611edb87828801611d47565b9450506020611eec87828801611d47565b9350506040611efd87828801611dc9565b925050606085013567ffffffffffffffff811115611f1e57611f1d612afd565b5b611f2a87828801611d9b565b91505092959194509250565b60008060408385031215611f4d57611f4c612b02565b5b6000611f5b85828601611d47565b9250506020611f6c85828601611d5c565b9150509250929050565b60008060408385031215611f8d57611f8c612b02565b5b6000611f9b85828601611d47565b9250506020611fac85828601611dc9565b9150509250929050565b600060208284031215611fcc57611fcb612b02565b5b6000611fda84828501611d71565b91505092915050565b600060208284031215611ff957611ff8612b02565b5b600061200784828501611d86565b91505092915050565b60006020828403121561202657612025612b02565b5b600061203484828501611dc9565b91505092915050565b60006020828403121561205357612052612b02565b5b600061206184828501611dde565b91505092915050565b61207381612851565b82525050565b61208281612863565b82525050565b600061209382612753565b61209d8185612769565b93506120ad8185602086016128f8565b6120b681612b07565b840191505092915050565b6120ca816128c5565b82525050565b60006120db8261275e565b6120e5818561277a565b93506120f58185602086016128f8565b6120fe81612b07565b840191505092915050565b60006121148261275e565b61211e818561278b565b935061212e8185602086016128f8565b80840191505092915050565b600061214760328361277a565b915061215282612b18565b604082019050919050565b600061216a601c8361277a565b915061217582612b67565b602082019050919050565b600061218d60198361277a565b915061219882612b90565b602082019050919050565b60006121b060248361277a565b91506121bb82612bb9565b604082019050919050565b60006121d360128361277a565b91506121de82612c08565b602082019050919050565b60006121f660198361277a565b915061220182612c31565b602082019050919050565b6000612219602c8361277a565b915061222482612c5a565b604082019050919050565b600061223c60388361277a565b915061224782612ca9565b604082019050919050565b600061225f602a8361277a565b915061226a82612cf8565b604082019050919050565b600061228260298361277a565b915061228d82612d47565b604082019050919050565b60006122a5602e8361277a565b91506122b082612d96565b604082019050919050565b60006122c860208361277a565b91506122d382612de5565b602082019050919050565b60006122eb60318361277a565b91506122f682612e0e565b604082019050919050565b600061230e602c8361277a565b915061231982612e5d565b604082019050919050565b600061233160298361277a565b915061233c82612eac565b604082019050919050565b6000612354602f8361277a565b915061235f82612efb565b604082019050919050565b600061237760218361277a565b915061238282612f4a565b604082019050919050565b600061239a60318361277a565b91506123a582612f99565b604082019050919050565b6123b9816128bb565b82525050565b60006123cb8285612109565b91506123d78284612109565b91508190509392505050565b60006020820190506123f8600083018461206a565b92915050565b6000608082019050612413600083018761206a565b612420602083018661206a565b61242d60408301856123b0565b818103606083015261243f8184612088565b905095945050505050565b600060208201905061245f6000830184612079565b92915050565b600060208201905061247a60008301846120c1565b92915050565b6000602082019050818103600083015261249a81846120d0565b905092915050565b600060208201905081810360008301526124bb8161213a565b9050919050565b600060208201905081810360008301526124db8161215d565b9050919050565b600060208201905081810360008301526124fb81612180565b9050919050565b6000602082019050818103600083015261251b816121a3565b9050919050565b6000602082019050818103600083015261253b816121c6565b9050919050565b6000602082019050818103600083015261255b816121e9565b9050919050565b6000602082019050818103600083015261257b8161220c565b9050919050565b6000602082019050818103600083015261259b8161222f565b9050919050565b600060208201905081810360008301526125bb81612252565b9050919050565b600060208201905081810360008301526125db81612275565b9050919050565b600060208201905081810360008301526125fb81612298565b9050919050565b6000602082019050818103600083015261261b816122bb565b9050919050565b6000602082019050818103600083015261263b816122de565b9050919050565b6000602082019050818103600083015261265b81612301565b9050919050565b6000602082019050818103600083015261267b81612324565b9050919050565b6000602082019050818103600083015261269b81612347565b9050919050565b600060208201905081810360008301526126bb8161236a565b9050919050565b600060208201905081810360008301526126db8161238d565b9050919050565b60006020820190506126f760008301846123b0565b92915050565b6000612707612718565b9050612713828261295d565b919050565b6000604051905090565b600067ffffffffffffffff82111561273d5761273c612ac4565b5b61274682612b07565b9050602081019050919050565b600081519050919050565b600081519050919050565b600082825260208201905092915050565b600082825260208201905092915050565b600081905092915050565b60006127a1826128bb565b91506127ac836128bb565b9250827fffffffffffffffffffffffffffffffffffffffffffffffffffffffffffffffff038211156127e1576127e0612a08565b5b828201905092915050565b60006127f7826128bb565b9150612802836128bb565b92508261281257612811612a37565b5b828204905092915050565b6000612828826128bb565b9150612833836128bb565b92508282101561284657612845612a08565b5b828203905092915050565b600061285c8261289b565b9050919050565b60008115159050919050565b60007fffffffff0000000000000000000000000000000000000000000000000000000082169050919050565b600073ffffffffffffffffffffffffffffffffffffffff82169050919050565b6000819050919050565b60006128d0826128d7565b9050919050565b60006128e28261289b565b9050919050565b82818337600083830152505050565b60005b838110156129165780820151818401526020810190506128fb565b83811115612925576000848401525b50505050565b6000600282049050600182168061294357607f821691505b6020821081141561295757612956612a66565b5b50919050565b61296682612b07565b810181811067ffffffffffffffff8211171561298557612984612ac4565b5b80604052505050565b6000612999826128bb565b91507fffffffffffffffffffffffffffffffffffffffffffffffffffffffffffffffff8214156129cc576129cb612a08565b5b600182019050919050565b60006129e2826128bb565b91506129ed836128bb565b9250826129fd576129fc612a37565b5b828206905092915050565b7f4e487b7100000000000000000000000000000000000000000000000000000000600052601160045260246000fd5b7f4e487b7100000000000000000000000000000000000000000000000000000000600052601260045260246000fd5b7f4e487b7100000000000000000000000000000000000000000000000000000000600052602260045260246000fd5b7f4e487b7100000000000000000000000000000000000000000000000000000000600052603260045260246000fd5b7f4e487b7100000000000000000000000000000000000000000000000000000000600052604160045260246000fd5b600080fd5b600080fd5b600080fd5b600080fd5b6000601f19601f8301169050919050565b7f4552433732313a207472616e7366657220746f206e6f6e20455243373231526560008201527f63656976657220696d706c656d656e7465720000000000000000000000000000602082015250565b7f4552433732313a20746f6b656e20616c7265616479206d696e74656400000000600082015250565b7f416c6c20746f6b656e7320616c7265616479206d696e74656400000000000000600082015250565b7f4552433732313a207472616e7366657220746f20746865207a65726f2061646460008201527f7265737300000000000000000000000000000000000000000000000000000000602082015250565b7f4e465420616c7265616479206d696e7465640000000000000000000000000000600082015250565b7f4552433732313a20617070726f766520746f2063616c6c657200000000000000600082015250565b7f4552433732313a206f70657261746f7220717565727920666f72206e6f6e657860008201527f697374656e7420746f6b656e0000000000000000000000000000000000000000602082015250565b7f4552433732313a20617070726f76652063616c6c6572206973206e6f74206f7760008201527f6e6572206e6f7220617070726f76656420666f7220616c6c0000000000000000602082015250565b7f4552433732313a2062616c616e636520717565727920666f7220746865207a6560008201527f726f206164647265737300000000000000000000000000000000000000000000602082015250565b7f4552433732313a206f776e657220717565727920666f72206e6f6e657869737460008201527f656e7420746f6b656e0000000000000000000000000000000000000000000000602082015250565b7f45524337323155524953746f726167653a2055524920736574206f66206e6f6e60008201527f6578697374656e7420746f6b656e000000000000000000000000000000000000602082015250565b7f4552433732313a206d696e7420746f20746865207a65726f2061646472657373600082015250565b7f45524337323155524953746f726167653a2055524920717565727920666f722060008201527f6e6f6e6578697374656e7420746f6b656e000000000000000000000000000000602082015250565b7f4552433732313a20617070726f76656420717565727920666f72206e6f6e657860008201527f697374656e7420746f6b656e0000000000000000000000000000000000000000602082015250565b7f4552433732313a207472616e73666572206f6620746f6b656e2074686174206960008201527f73206e6f74206f776e0000000000000000000000000000000000000000000000602082015250565b7f4552433732314d657461646174613a2055524920717565727920666f72206e6f60008201527f6e6578697374656e7420746f6b656e0000000000000000000000000000000000602082015250565b7f4552433732313a20617070726f76616c20746f2063757272656e74206f776e6560008201527f7200000000000000000000000000000000000000000000000000000000000000602082015250565b7f4552433732313a207472616e736665722063616c6c6572206973206e6f74206f60008201527f776e6572206e6f7220617070726f766564000000000000000000000000000000602082015250565b612ff181612851565b8114612ffc57600080fd5b50565b61300881612863565b811461301357600080fd5b50565b61301f8161286f565b811461302a57600080fd5b50565b613036816128bb565b811461304157600080fd5b5056fea2646970667358221220cfb6156198a2a3a8ac6fc76a34b89d73a0904a3ccdf4ebb3a480757a8d6babe064736f6c63430008050033",
  "linkReferences": {},
  "deployedLinkReferences": {}
}