{
  "_format": "hh-sol-artifact-1",
  "contractName": "BankRunner",
  "sourceName": "contracts/BankRunner.sol",
  "abi": [
    {
      "inputs": [
        {
          "internalType": "string",
          "name": "_tokenURI",
          "type": "string"
        },
        {
          "internalType": "address",
          "name": "_titanAddress",
          "type": "address"
        }
      ],
      "stateMutability": "nonpayable",
      "type": "constructor"
    },
    {
      "anonymous": false,
      "inputs": [
        {
          "indexed": true,
          "internalType": "address",
          "name": "owner",
          "type": "address"
        },
        {
          "indexed": true,
          "internalType": "address",
          "name": "approved",
          "type": "address"
        },
        {
          "indexed": true,
          "internalType": "uint256",
          "name": "tokenId",
          "type": "uint256"
        }
      ],
      "name": "Approval",
      "type": "event"
    },
    {
      "anonymous": false,
      "inputs": [
        {
          "indexed": true,
          "internalType": "address",
          "name": "owner",
          "type": "address"
        },
        {
          "indexed": true,
          "internalType": "address",
          "name": "operator",
          "type": "address"
        },
        {
          "indexed": false,
          "internalType": "bool",
          "name": "approved",
          "type": "bool"
        }
      ],
      "name": "ApprovalForAll",
      "type": "event"
    },
    {
      "anonymous": false,
      "inputs": [
        {
          "indexed": true,
          "internalType": "address",
          "name": "from",
          "type": "address"
        },
        {
          "indexed": true,
          "internalType": "address",
          "name": "to",
          "type": "address"
        },
        {
          "indexed": true,
          "internalType": "uint256",
          "name": "tokenId",
          "type": "uint256"
        }
      ],
      "name": "Transfer",
      "type": "event"
    },
    {
      "inputs": [
        {
          "internalType": "address",
          "name": "to",
          "type": "address"
        },
        {
          "internalType": "uint256",
          "name": "tokenId",
          "type": "uint256"
        }
      ],
      "name": "approve",
      "outputs": [],
      "stateMutability": "nonpayable",
      "type": "function"
    },
    {
      "inputs": [
        {
          "internalType": "address",
          "name": "owner",
          "type": "address"
        }
      ],
      "name": "balanceOf",
      "outputs": [
        {
          "internalType": "uint256",
          "name": "",
          "type": "uint256"
        }
      ],
      "stateMutability": "view",
      "type": "function"
    },
    {
      "inputs": [
        {
          "internalType": "uint256",
          "name": "tokenId",
          "type": "uint256"
        }
      ],
      "name": "getApproved",
      "outputs": [
        {
          "internalType": "address",
          "name": "",
          "type": "address"
        }
      ],
      "stateMutability": "view",
      "type": "function"
    },
    {
      "inputs": [],
      "name": "hasBalance",
      "outputs": [
        {
          "internalType": "bool",
          "name": "",
          "type": "bool"
        }
      ],
      "stateMutability": "view",
      "type": "function"
    },
    {
      "inputs": [
        {
          "internalType": "address",
          "name": "owner",
          "type": "address"
        },
        {
          "internalType": "address",
          "name": "operator",
          "type": "address"
        }
      ],
      "name": "isApprovedForAll",
      "outputs": [
        {
          "internalType": "bool",
          "name": "",
          "type": "bool"
        }
      ],
      "stateMutability": "view",
      "type": "function"
    },
    {
      "inputs": [],
      "name": "mintCollectible",
      "outputs": [
        {
          "internalType": "uint256",
          "name": "",
          "type": "uint256"
        }
      ],
      "stateMutability": "nonpayable",
      "type": "function"
    },
    {
      "inputs": [
        {
          "internalType": "address",
          "name": "",
          "type": "address"
        }
      ],
      "name": "minted",
      "outputs": [
        {
          "internalType": "bool",
          "name": "",
          "type": "bool"
        }
      ],
      "stateMutability": "view",
      "type": "function"
    },
    {
      "inputs": [],
      "name": "name",
      "outputs": [
        {
          "internalType": "string",
          "name": "",
          "type": "string"
        }
      ],
      "stateMutability": "view",
      "type": "function"
    },
    {
      "inputs": [
        {
          "internalType": "uint256",
          "name": "tokenId",
          "type": "uint256"
        }
      ],
      "name": "ownerOf",
      "outputs": [
        {
          "internalType": "address",
          "name": "",
          "type": "address"
        }
      ],
      "stateMutability": "view",
      "type": "function"
    },
    {
      "inputs": [
        {
          "internalType": "address",
          "name": "from",
          "type": "address"
        },
        {
          "internalType": "address",
          "name": "to",
          "type": "address"
        },
        {
          "internalType": "uint256",
          "name": "tokenId",
          "type": "uint256"
        }
      ],
      "name": "safeTransferFrom",
      "outputs": [],
      "stateMutability": "nonpayable",
      "type": "function"
    },
    {
      "inputs": [
        {
          "internalType": "address",
          "name": "from",
          "type": "address"
        },
        {
          "internalType": "address",
          "name": "to",
          "type": "address"
        },
        {
          "internalType": "uint256",
          "name": "tokenId",
          "type": "uint256"
        },
        {
          "internalType": "bytes",
          "name": "_data",
          "type": "bytes"
        }
      ],
      "name": "safeTransferFrom",
      "outputs": [],
      "stateMutability": "nonpayable",
      "type": "function"
    },
    {
      "inputs": [
        {
          "internalType": "address",
          "name": "operator",
          "type": "address"
        },
        {
          "internalType": "bool",
          "name": "approved",
          "type": "bool"
        }
      ],
      "name": "setApprovalForAll",
      "outputs": [],
      "stateMutability": "nonpayable",
      "type": "function"
    },
    {
      "inputs": [
        {
          "internalType": "bytes4",
          "name": "interfaceId",
          "type": "bytes4"
        }
      ],
      "name": "supportsInterface",
      "outputs": [
        {
          "internalType": "bool",
          "name": "",
          "type": "bool"
        }
      ],
      "stateMutability": "view",
      "type": "function"
    },
    {
      "inputs": [],
      "name": "symbol",
      "outputs": [
        {
          "internalType": "string",
          "name": "",
          "type": "string"
        }
      ],
      "stateMutability": "view",
      "type": "function"
    },
    {
      "inputs": [],
      "name": "titanToken",
      "outputs": [
        {
          "internalType": "contract IERC20",
          "name": "",
          "type": "address"
        }
      ],
      "stateMutability": "view",
      "type": "function"
    },
    {
      "inputs": [],
      "name": "tokenCounter",
      "outputs": [
        {
          "internalType": "uint256",
          "name": "",
          "type": "uint256"
        }
      ],
      "stateMutability": "view",
      "type": "function"
    },
    {
      "inputs": [],
      "name": "tokenURI",
      "outputs": [
        {
          "internalType": "string",
          "name": "",
          "type": "string"
        }
      ],
      "stateMutability": "view",
      "type": "function"
    },
    {
      "inputs": [
        {
          "internalType": "uint256",
          "name": "tokenId",
          "type": "uint256"
        }
      ],
      "name": "tokenURI",
      "outputs": [
        {
          "internalType": "string",
          "name": "",
          "type": "string"
        }
      ],
      "stateMutability": "view",
      "type": "function"
    },
    {
      "inputs": [
        {
          "internalType": "address",
          "name": "from",
          "type": "address"
        },
        {
          "internalType": "address",
          "name": "to",
          "type": "address"
        },
        {
          "internalType": "uint256",
          "name": "tokenId",
          "type": "uint256"
        }
      ],
      "name": "transferFrom",
      "outputs": [],
      "stateMutability": "nonpayable",
      "type": "function"
    }
  ],
  "bytecode": "0x60806040523480156200001157600080fd5b50604051620036a1380380620036a1833981810160405281019062000037919062000286565b6040518060400160405280600a81526020017f42616e6b52756e6e6572000000000000000000000000000000000000000000008152506040518060400160405280600381526020017f42525200000000000000000000000000000000000000000000000000000000008152508160009080519060200190620000bb92919062000141565b508060019080519060200190620000d492919062000141565b50505060006007819055508160089080519060200190620000f792919062000141565b5080600960006101000a81548173ffffffffffffffffffffffffffffffffffffffff021916908373ffffffffffffffffffffffffffffffffffffffff1602179055505050620004be565b8280546200014f90620003b5565b90600052602060002090601f016020900481019282620001735760008555620001bf565b82601f106200018e57805160ff1916838001178555620001bf565b82800160010185558215620001bf579182015b82811115620001be578251825591602001919060010190620001a1565b5b509050620001ce9190620001d2565b5090565b5b80821115620001ed576000816000905550600101620001d3565b5090565b600062000208620002028462000315565b620002ec565b90508281526020810184848401111562000227576200022662000484565b5b620002348482856200037f565b509392505050565b6000815190506200024d81620004a4565b92915050565b600082601f8301126200026b576200026a6200047f565b5b81516200027d848260208601620001f1565b91505092915050565b60008060408385031215620002a0576200029f6200048e565b5b600083015167ffffffffffffffff811115620002c157620002c062000489565b5b620002cf8582860162000253565b9250506020620002e2858286016200023c565b9150509250929050565b6000620002f86200030b565b9050620003068282620003eb565b919050565b6000604051905090565b600067ffffffffffffffff82111562000333576200033262000450565b5b6200033e8262000493565b9050602081019050919050565b600062000358826200035f565b9050919050565b600073ffffffffffffffffffffffffffffffffffffffff82169050919050565b60005b838110156200039f57808201518184015260208101905062000382565b83811115620003af576000848401525b50505050565b60006002820490506001821680620003ce57607f821691505b60208210811415620003e557620003e462000421565b5b50919050565b620003f68262000493565b810181811067ffffffffffffffff8211171562000418576200041762000450565b5b80604052505050565b7f4e487b7100000000000000000000000000000000000000000000000000000000600052602260045260246000fd5b7f4e487b7100000000000000000000000000000000000000000000000000000000600052604160045260246000fd5b600080fd5b600080fd5b600080fd5b600080fd5b6000601f19601f8301169050919050565b620004af816200034b565b8114620004bb57600080fd5b50565b6131d380620004ce6000396000f3fe608060405234801561001057600080fd5b50600436106101215760003560e01c806370a08231116100ad578063c87b56dd11610071578063c87b56dd1461031a578063d082e3811461034a578063e985e9c514610368578063f260ad0514610398578063f919594b146103b657610121565b806370a082311461027657806395d89b41146102a6578063a22cb465146102c4578063b1710ef9146102e0578063b88d4fde146102fe57610121565b80631e7269c5116100f45780631e7269c5146101c057806323b872dd146101f05780633c130d901461020c57806342842e0e1461022a5780636352211e1461024657610121565b806301ffc9a71461012657806306fdde0314610156578063081812fc14610174578063095ea7b3146101a4575b600080fd5b610140600480360381019061013b91906120a3565b6103d4565b60405161014d919061255a565b60405180910390f35b61015e6104b6565b60405161016b9190612590565b60405180910390f35b61018e600480360381019061018991906120fd565b610548565b60405161019b91906124f3565b60405180910390f35b6101be60048036038101906101b99190612063565b6105cd565b005b6101da60048036038101906101d59190611ee0565b6106e5565b6040516101e7919061255a565b60405180910390f35b61020a60048036038101906102059190611f4d565b610705565b005b610214610765565b6040516102219190612590565b60405180910390f35b610244600480360381019061023f9190611f4d565b6107f3565b005b610260600480360381019061025b91906120fd565b610813565b60405161026d91906124f3565b60405180910390f35b610290600480360381019061028b9190611ee0565b6108c5565b60405161029d9190612812565b60405180910390f35b6102ae61097d565b6040516102bb9190612590565b60405180910390f35b6102de60048036038101906102d99190612023565b610a0f565b005b6102e8610b90565b6040516102f5919061255a565b60405180910390f35b61031860048036038101906103139190611fa0565b610c44565b005b610334600480360381019061032f91906120fd565b610ca6565b6040516103419190612590565b60405180910390f35b610352610df8565b60405161035f9190612812565b60405180910390f35b610382600480360381019061037d9190611f0d565b610dfe565b60405161038f919061255a565b60405180910390f35b6103a0610e92565b6040516103ad9190612575565b60405180910390f35b6103be610eb8565b6040516103cb9190612812565b60405180910390f35b60007f80ac58cd000000000000000000000000000000000000000000000000000000007bffffffffffffffffffffffffffffffffffffffffffffffffffffffff1916827bffffffffffffffffffffffffffffffffffffffffffffffffffffffff1916148061049f57507f5b5e139f000000000000000000000000000000000000000000000000000000007bffffffffffffffffffffffffffffffffffffffffffffffffffffffff1916827bffffffffffffffffffffffffffffffffffffffffffffffffffffffff1916145b806104af57506104ae82611199565b5b9050919050565b6060600080546104c590612a5b565b80601f01602080910402602001604051908101604052809291908181526020018280546104f190612a5b565b801561053e5780601f106105135761010080835404028352916020019161053e565b820191906000526020600020905b81548152906001019060200180831161052157829003601f168201915b5050505050905090565b600061055382611203565b610592576040517f08c379a000000000000000000000000000000000000000000000000000000000815260040161058990612752565b60405180910390fd5b6004600083815260200190815260200160002060009054906101000a900473ffffffffffffffffffffffffffffffffffffffff169050919050565b60006105d882610813565b90508073ffffffffffffffffffffffffffffffffffffffff168373ffffffffffffffffffffffffffffffffffffffff161415610649576040517f08c379a0000000000000000000000000000000000000000000000000000000008152600401610640906127d2565b60405180910390fd5b8073ffffffffffffffffffffffffffffffffffffffff1661066861126f565b73ffffffffffffffffffffffffffffffffffffffff16148061069757506106968161069161126f565b610dfe565b5b6106d6576040517f08c379a00000000000000000000000000000000000000000000000000000000081526004016106cd90612692565b60405180910390fd5b6106e08383611277565b505050565b600a6020528060005260406000206000915054906101000a900460ff1681565b61071661071061126f565b82611330565b610755576040517f08c379a000000000000000000000000000000000000000000000000000000000815260040161074c906127f2565b60405180910390fd5b61076083838361140e565b505050565b6008805461077290612a5b565b80601f016020809104026020016040519081016040528092919081815260200182805461079e90612a5b565b80156107eb5780601f106107c0576101008083540402835291602001916107eb565b820191906000526020600020905b8154815290600101906020018083116107ce57829003601f168201915b505050505081565b61080e83838360405180602001604052806000815250610c44565b505050565b6000806002600084815260200190815260200160002060009054906101000a900473ffffffffffffffffffffffffffffffffffffffff169050600073ffffffffffffffffffffffffffffffffffffffff168173ffffffffffffffffffffffffffffffffffffffff1614156108bc576040517f08c379a00000000000000000000000000000000000000000000000000000000081526004016108b3906126d2565b60405180910390fd5b80915050919050565b60008073ffffffffffffffffffffffffffffffffffffffff168273ffffffffffffffffffffffffffffffffffffffff161415610936576040517f08c379a000000000000000000000000000000000000000000000000000000000815260040161092d906126b2565b60405180910390fd5b600360008373ffffffffffffffffffffffffffffffffffffffff1673ffffffffffffffffffffffffffffffffffffffff168152602001908152602001600020549050919050565b60606001805461098c90612a5b565b80601f01602080910402602001604051908101604052809291908181526020018280546109b890612a5b565b8015610a055780601f106109da57610100808354040283529160200191610a05565b820191906000526020600020905b8154815290600101906020018083116109e857829003601f168201915b5050505050905090565b610a1761126f565b73ffffffffffffffffffffffffffffffffffffffff168273ffffffffffffffffffffffffffffffffffffffff161415610a85576040517f08c379a0000000000000000000000000000000000000000000000000000000008152600401610a7c90612652565b60405180910390fd5b8060056000610a9261126f565b73ffffffffffffffffffffffffffffffffffffffff1673ffffffffffffffffffffffffffffffffffffffff16815260200190815260200160002060008473ffffffffffffffffffffffffffffffffffffffff1673ffffffffffffffffffffffffffffffffffffffff16815260200190815260200160002060006101000a81548160ff0219169083151502179055508173ffffffffffffffffffffffffffffffffffffffff16610b3f61126f565b73ffffffffffffffffffffffffffffffffffffffff167f17307eab39ab6107e8899845ad3d59bd9653f200f220920489ca2b5937696c3183604051610b84919061255a565b60405180910390a35050565b600080600960009054906101000a900473ffffffffffffffffffffffffffffffffffffffff1673ffffffffffffffffffffffffffffffffffffffff166370a08231336040518263ffffffff1660e01b8152600401610bee91906124f3565b60206040518083038186803b158015610c0657600080fd5b505afa158015610c1a573d6000803e3d6000fd5b505050506040513d601f19601f82011682018060405250810190610c3e919061212a565b11905090565b610c55610c4f61126f565b83611330565b610c94576040517f08c379a0000000000000000000000000000000000000000000000000000000008152600401610c8b906127f2565b60405180910390fd5b610ca08484848461166a565b50505050565b6060610cb182611203565b610cf0576040517f08c379a0000000000000000000000000000000000000000000000000000000008152600401610ce790612732565b60405180910390fd5b6000600660008481526020019081526020016000208054610d1090612a5b565b80601f0160208091040260200160405190810160405280929190818152602001828054610d3c90612a5b565b8015610d895780601f10610d5e57610100808354040283529160200191610d89565b820191906000526020600020905b815481529060010190602001808311610d6c57829003601f168201915b505050505090506000610d9a6116c6565b9050600081511415610db0578192505050610df3565b600082511115610de5578082604051602001610dcd9291906124cf565b60405160208183030381529060405292505050610df3565b610dee846116dd565b925050505b919050565b60075481565b6000600560008473ffffffffffffffffffffffffffffffffffffffff1673ffffffffffffffffffffffffffffffffffffffff16815260200190815260200160002060008373ffffffffffffffffffffffffffffffffffffffff1673ffffffffffffffffffffffffffffffffffffffff16815260200190815260200160002060009054906101000a900460ff16905092915050565b600960009054906101000a900473ffffffffffffffffffffffffffffffffffffffff1681565b60006103e860075410610f00576040517f08c379a0000000000000000000000000000000000000000000000000000000008152600401610ef7906125f2565b60405180910390fd5b6000600960009054906101000a900473ffffffffffffffffffffffffffffffffffffffff1673ffffffffffffffffffffffffffffffffffffffff166370a08231336040518263ffffffff1660e01b8152600401610f5d91906124f3565b60206040518083038186803b158015610f7557600080fd5b505afa158015610f89573d6000803e3d6000fd5b505050506040513d601f19601f82011682018060405250810190610fad919061212a565b11610fed576040517f08c379a0000000000000000000000000000000000000000000000000000000008152600401610fe4906127b2565b60405180910390fd5b60001515600a60003373ffffffffffffffffffffffffffffffffffffffff1673ffffffffffffffffffffffffffffffffffffffff16815260200190815260200160002060009054906101000a900460ff16151514611080576040517f08c379a000000000000000000000000000000000000000000000000000000000815260040161107790612632565b60405180910390fd5b6001600a60003373ffffffffffffffffffffffffffffffffffffffff1673ffffffffffffffffffffffffffffffffffffffff16815260200190815260200160002060006101000a81548160ff021916908315150217905550600060075490506110e93382611784565b61117d81600880546110fa90612a5b565b80601f016020809104026020016040519081016040528092919081815260200182805461112690612a5b565b80156111735780601f1061114857610100808354040283529160200191611173565b820191906000526020600020905b81548152906001019060200180831161115657829003601f168201915b50505050506117a2565b600160075461118c91906128c6565b6007819055508091505090565b60007f01ffc9a7000000000000000000000000000000000000000000000000000000007bffffffffffffffffffffffffffffffffffffffffffffffffffffffff1916827bffffffffffffffffffffffffffffffffffffffffffffffffffffffff1916149050919050565b60008073ffffffffffffffffffffffffffffffffffffffff166002600084815260200190815260200160002060009054906101000a900473ffffffffffffffffffffffffffffffffffffffff1673ffffffffffffffffffffffffffffffffffffffff1614159050919050565b600033905090565b816004600083815260200190815260200160002060006101000a81548173ffffffffffffffffffffffffffffffffffffffff021916908373ffffffffffffffffffffffffffffffffffffffff160217905550808273ffffffffffffffffffffffffffffffffffffffff166112ea83610813565b73ffffffffffffffffffffffffffffffffffffffff167f8c5be1e5ebec7d5bd14f71427d1e84f3dd0314c0f7b2291e5b200ac8c7c3b92560405160405180910390a45050565b600061133b82611203565b61137a576040517f08c379a000000000000000000000000000000000000000000000000000000000815260040161137190612672565b60405180910390fd5b600061138583610813565b90508073ffffffffffffffffffffffffffffffffffffffff168473ffffffffffffffffffffffffffffffffffffffff1614806113f457508373ffffffffffffffffffffffffffffffffffffffff166113dc84610548565b73ffffffffffffffffffffffffffffffffffffffff16145b8061140557506114048185610dfe565b5b91505092915050565b8273ffffffffffffffffffffffffffffffffffffffff1661142e82610813565b73ffffffffffffffffffffffffffffffffffffffff1614611484576040517f08c379a000000000000000000000000000000000000000000000000000000000815260040161147b90612772565b60405180910390fd5b600073ffffffffffffffffffffffffffffffffffffffff168273ffffffffffffffffffffffffffffffffffffffff1614156114f4576040517f08c379a00000000000000000000000000000000000000000000000000000000081526004016114eb90612612565b60405180910390fd5b6114ff838383611816565b61150a600082611277565b6001600360008573ffffffffffffffffffffffffffffffffffffffff1673ffffffffffffffffffffffffffffffffffffffff168152602001908152602001600020600082825461155a919061294d565b925050819055506001600360008473ffffffffffffffffffffffffffffffffffffffff1673ffffffffffffffffffffffffffffffffffffffff16815260200190815260200160002060008282546115b191906128c6565b92505081905550816002600083815260200190815260200160002060006101000a81548173ffffffffffffffffffffffffffffffffffffffff021916908373ffffffffffffffffffffffffffffffffffffffff160217905550808273ffffffffffffffffffffffffffffffffffffffff168473ffffffffffffffffffffffffffffffffffffffff167fddf252ad1be2c89b69c2b068fc378daa952ba7f163c4a11628f55a4df523b3ef60405160405180910390a4505050565b61167584848461140e565b6116818484848461181b565b6116c0576040517f08c379a00000000000000000000000000000000000000000000000000000000081526004016116b7906125b2565b60405180910390fd5b50505050565b606060405180602001604052806000815250905090565b60606116e882611203565b611727576040517f08c379a000000000000000000000000000000000000000000000000000000000815260040161171e90612792565b60405180910390fd5b60006117316116c6565b90506000815111611751576040518060200160405280600081525061177c565b8061175b846119b2565b60405160200161176c9291906124cf565b6040516020818303038152906040525b915050919050565b61179e828260405180602001604052806000815250611b13565b5050565b6117ab82611203565b6117ea576040517f08c379a00000000000000000000000000000000000000000000000000000000081526004016117e1906126f2565b60405180910390fd5b80600660008481526020019081526020016000209080519060200190611811929190611d4f565b505050565b505050565b600061183c8473ffffffffffffffffffffffffffffffffffffffff16611b6e565b156119a5578373ffffffffffffffffffffffffffffffffffffffff1663150b7a0261186561126f565b8786866040518563ffffffff1660e01b8152600401611887949392919061250e565b602060405180830381600087803b1580156118a157600080fd5b505af19250505080156118d257506040513d601f19601f820116820180604052508101906118cf91906120d0565b60015b611955573d8060008114611902576040519150601f19603f3d011682016040523d82523d6000602084013e611907565b606091505b5060008151141561194d576040517f08c379a0000000000000000000000000000000000000000000000000000000008152600401611944906125b2565b60405180910390fd5b805181602001fd5b63150b7a0260e01b7bffffffffffffffffffffffffffffffffffffffffffffffffffffffff1916817bffffffffffffffffffffffffffffffffffffffffffffffffffffffff1916149150506119aa565b600190505b949350505050565b606060008214156119fa576040518060400160405280600181526020017f30000000000000000000000000000000000000000000000000000000000000008152509050611b0e565b600082905060005b60008214611a2c578080611a1590612abe565b915050600a82611a25919061291c565b9150611a02565b60008167ffffffffffffffff811115611a4857611a47612bf4565b5b6040519080825280601f01601f191660200182016040528015611a7a5781602001600182028036833780820191505090505b5090505b60008514611b0757600182611a93919061294d565b9150600a85611aa29190612b07565b6030611aae91906128c6565b60f81b818381518110611ac457611ac3612bc5565b5b60200101907effffffffffffffffffffffffffffffffffffffffffffffffffffffffffffff1916908160001a905350600a85611b00919061291c565b9450611a7e565b8093505050505b919050565b611b1d8383611b81565b611b2a600084848461181b565b611b69576040517f08c379a0000000000000000000000000000000000000000000000000000000008152600401611b60906125b2565b60405180910390fd5b505050565b600080823b905060008111915050919050565b600073ffffffffffffffffffffffffffffffffffffffff168273ffffffffffffffffffffffffffffffffffffffff161415611bf1576040517f08c379a0000000000000000000000000000000000000000000000000000000008152600401611be890612712565b60405180910390fd5b611bfa81611203565b15611c3a576040517f08c379a0000000000000000000000000000000000000000000000000000000008152600401611c31906125d2565b60405180910390fd5b611c4660008383611816565b6001600360008473ffffffffffffffffffffffffffffffffffffffff1673ffffffffffffffffffffffffffffffffffffffff1681526020019081526020016000206000828254611c9691906128c6565b92505081905550816002600083815260200190815260200160002060006101000a81548173ffffffffffffffffffffffffffffffffffffffff021916908373ffffffffffffffffffffffffffffffffffffffff160217905550808273ffffffffffffffffffffffffffffffffffffffff16600073ffffffffffffffffffffffffffffffffffffffff167fddf252ad1be2c89b69c2b068fc378daa952ba7f163c4a11628f55a4df523b3ef60405160405180910390a45050565b828054611d5b90612a5b565b90600052602060002090601f016020900481019282611d7d5760008555611dc4565b82601f10611d9657805160ff1916838001178555611dc4565b82800160010185558215611dc4579182015b82811115611dc3578251825591602001919060010190611da8565b5b509050611dd19190611dd5565b5090565b5b80821115611dee576000816000905550600101611dd6565b5090565b6000611e05611e0084612852565b61282d565b905082815260208101848484011115611e2157611e20612c28565b5b611e2c848285612a19565b509392505050565b600081359050611e4381613141565b92915050565b600081359050611e5881613158565b92915050565b600081359050611e6d8161316f565b92915050565b600081519050611e828161316f565b92915050565b600082601f830112611e9d57611e9c612c23565b5b8135611ead848260208601611df2565b91505092915050565b600081359050611ec581613186565b92915050565b600081519050611eda81613186565b92915050565b600060208284031215611ef657611ef5612c32565b5b6000611f0484828501611e34565b91505092915050565b60008060408385031215611f2457611f23612c32565b5b6000611f3285828601611e34565b9250506020611f4385828601611e34565b9150509250929050565b600080600060608486031215611f6657611f65612c32565b5b6000611f7486828701611e34565b9350506020611f8586828701611e34565b9250506040611f9686828701611eb6565b9150509250925092565b60008060008060808587031215611fba57611fb9612c32565b5b6000611fc887828801611e34565b9450506020611fd987828801611e34565b9350506040611fea87828801611eb6565b925050606085013567ffffffffffffffff81111561200b5761200a612c2d565b5b61201787828801611e88565b91505092959194509250565b6000806040838503121561203a57612039612c32565b5b600061204885828601611e34565b925050602061205985828601611e49565b9150509250929050565b6000806040838503121561207a57612079612c32565b5b600061208885828601611e34565b925050602061209985828601611eb6565b9150509250929050565b6000602082840312156120b9576120b8612c32565b5b60006120c784828501611e5e565b91505092915050565b6000602082840312156120e6576120e5612c32565b5b60006120f484828501611e73565b91505092915050565b60006020828403121561211357612112612c32565b5b600061212184828501611eb6565b91505092915050565b6000602082840312156121405761213f612c32565b5b600061214e84828501611ecb565b91505092915050565b61216081612981565b82525050565b61216f81612993565b82525050565b600061218082612883565b61218a8185612899565b935061219a818560208601612a28565b6121a381612c37565b840191505092915050565b6121b7816129f5565b82525050565b60006121c88261288e565b6121d281856128aa565b93506121e2818560208601612a28565b6121eb81612c37565b840191505092915050565b60006122018261288e565b61220b81856128bb565b935061221b818560208601612a28565b80840191505092915050565b60006122346032836128aa565b915061223f82612c48565b604082019050919050565b6000612257601c836128aa565b915061226282612c97565b602082019050919050565b600061227a6019836128aa565b915061228582612cc0565b602082019050919050565b600061229d6024836128aa565b91506122a882612ce9565b604082019050919050565b60006122c06012836128aa565b91506122cb82612d38565b602082019050919050565b60006122e36019836128aa565b91506122ee82612d61565b602082019050919050565b6000612306602c836128aa565b915061231182612d8a565b604082019050919050565b60006123296038836128aa565b915061233482612dd9565b604082019050919050565b600061234c602a836128aa565b915061235782612e28565b604082019050919050565b600061236f6029836128aa565b915061237a82612e77565b604082019050919050565b6000612392602e836128aa565b915061239d82612ec6565b604082019050919050565b60006123b56020836128aa565b91506123c082612f15565b602082019050919050565b60006123d86031836128aa565b91506123e382612f3e565b604082019050919050565b60006123fb602c836128aa565b915061240682612f8d565b604082019050919050565b600061241e6029836128aa565b915061242982612fdc565b604082019050919050565b6000612441602f836128aa565b915061244c8261302b565b604082019050919050565b60006124646018836128aa565b915061246f8261307a565b602082019050919050565b60006124876021836128aa565b9150612492826130a3565b604082019050919050565b60006124aa6031836128aa565b91506124b5826130f2565b604082019050919050565b6124c9816129eb565b82525050565b60006124db82856121f6565b91506124e782846121f6565b91508190509392505050565b60006020820190506125086000830184612157565b92915050565b60006080820190506125236000830187612157565b6125306020830186612157565b61253d60408301856124c0565b818103606083015261254f8184612175565b905095945050505050565b600060208201905061256f6000830184612166565b92915050565b600060208201905061258a60008301846121ae565b92915050565b600060208201905081810360008301526125aa81846121bd565b905092915050565b600060208201905081810360008301526125cb81612227565b9050919050565b600060208201905081810360008301526125eb8161224a565b9050919050565b6000602082019050818103600083015261260b8161226d565b9050919050565b6000602082019050818103600083015261262b81612290565b9050919050565b6000602082019050818103600083015261264b816122b3565b9050919050565b6000602082019050818103600083015261266b816122d6565b9050919050565b6000602082019050818103600083015261268b816122f9565b9050919050565b600060208201905081810360008301526126ab8161231c565b9050919050565b600060208201905081810360008301526126cb8161233f565b9050919050565b600060208201905081810360008301526126eb81612362565b9050919050565b6000602082019050818103600083015261270b81612385565b9050919050565b6000602082019050818103600083015261272b816123a8565b9050919050565b6000602082019050818103600083015261274b816123cb565b9050919050565b6000602082019050818103600083015261276b816123ee565b9050919050565b6000602082019050818103600083015261278b81612411565b9050919050565b600060208201905081810360008301526127ab81612434565b9050919050565b600060208201905081810360008301526127cb81612457565b9050919050565b600060208201905081810360008301526127eb8161247a565b9050919050565b6000602082019050818103600083015261280b8161249d565b9050919050565b600060208201905061282760008301846124c0565b92915050565b6000612837612848565b90506128438282612a8d565b919050565b6000604051905090565b600067ffffffffffffffff82111561286d5761286c612bf4565b5b61287682612c37565b9050602081019050919050565b600081519050919050565b600081519050919050565b600082825260208201905092915050565b600082825260208201905092915050565b600081905092915050565b60006128d1826129eb565b91506128dc836129eb565b9250827fffffffffffffffffffffffffffffffffffffffffffffffffffffffffffffffff0382111561291157612910612b38565b5b828201905092915050565b6000612927826129eb565b9150612932836129eb565b92508261294257612941612b67565b5b828204905092915050565b6000612958826129eb565b9150612963836129eb565b92508282101561297657612975612b38565b5b828203905092915050565b600061298c826129cb565b9050919050565b60008115159050919050565b60007fffffffff0000000000000000000000000000000000000000000000000000000082169050919050565b600073ffffffffffffffffffffffffffffffffffffffff82169050919050565b6000819050919050565b6000612a0082612a07565b9050919050565b6000612a12826129cb565b9050919050565b82818337600083830152505050565b60005b83811015612a46578082015181840152602081019050612a2b565b83811115612a55576000848401525b50505050565b60006002820490506001821680612a7357607f821691505b60208210811415612a8757612a86612b96565b5b50919050565b612a9682612c37565b810181811067ffffffffffffffff82111715612ab557612ab4612bf4565b5b80604052505050565b6000612ac9826129eb565b91507fffffffffffffffffffffffffffffffffffffffffffffffffffffffffffffffff821415612afc57612afb612b38565b5b600182019050919050565b6000612b12826129eb565b9150612b1d836129eb565b925082612b2d57612b2c612b67565b5b828206905092915050565b7f4e487b7100000000000000000000000000000000000000000000000000000000600052601160045260246000fd5b7f4e487b7100000000000000000000000000000000000000000000000000000000600052601260045260246000fd5b7f4e487b7100000000000000000000000000000000000000000000000000000000600052602260045260246000fd5b7f4e487b7100000000000000000000000000000000000000000000000000000000600052603260045260246000fd5b7f4e487b7100000000000000000000000000000000000000000000000000000000600052604160045260246000fd5b600080fd5b600080fd5b600080fd5b600080fd5b6000601f19601f8301169050919050565b7f4552433732313a207472616e7366657220746f206e6f6e20455243373231526560008201527f63656976657220696d706c656d656e7465720000000000000000000000000000602082015250565b7f4552433732313a20746f6b656e20616c7265616479206d696e74656400000000600082015250565b7f416c6c20746f6b656e7320616c7265616479206d696e74656400000000000000600082015250565b7f4552433732313a207472616e7366657220746f20746865207a65726f2061646460008201527f7265737300000000000000000000000000000000000000000000000000000000602082015250565b7f4e465420616c7265616479206d696e7465640000000000000000000000000000600082015250565b7f4552433732313a20617070726f766520746f2063616c6c657200000000000000600082015250565b7f4552433732313a206f70657261746f7220717565727920666f72206e6f6e657860008201527f697374656e7420746f6b656e0000000000000000000000000000000000000000602082015250565b7f4552433732313a20617070726f76652063616c6c6572206973206e6f74206f7760008201527f6e6572206e6f7220617070726f76656420666f7220616c6c0000000000000000602082015250565b7f4552433732313a2062616c616e636520717565727920666f7220746865207a6560008201527f726f206164647265737300000000000000000000000000000000000000000000602082015250565b7f4552433732313a206f776e657220717565727920666f72206e6f6e657869737460008201527f656e7420746f6b656e0000000000000000000000000000000000000000000000602082015250565b7f45524337323155524953746f726167653a2055524920736574206f66206e6f6e60008201527f6578697374656e7420746f6b656e000000000000000000000000000000000000602082015250565b7f4552433732313a206d696e7420746f20746865207a65726f2061646472657373600082015250565b7f45524337323155524953746f726167653a2055524920717565727920666f722060008201527f6e6f6e6578697374656e7420746f6b656e000000000000000000000000000000602082015250565b7f4552433732313a20617070726f76656420717565727920666f72206e6f6e657860008201527f697374656e7420746f6b656e0000000000000000000000000000000000000000602082015250565b7f4552433732313a207472616e73666572206f6620746f6b656e2074686174206960008201527f73206e6f74206f776e0000000000000000000000000000000000000000000000602082015250565b7f4552433732314d657461646174613a2055524920717565727920666f72206e6f60008201527f6e6578697374656e7420746f6b656e0000000000000000000000000000000000602082015250565b7f4f776e657220646f65736e2774206861766520546974616e0000000000000000600082015250565b7f4552433732313a20617070726f76616c20746f2063757272656e74206f776e6560008201527f7200000000000000000000000000000000000000000000000000000000000000602082015250565b7f4552433732313a207472616e736665722063616c6c6572206973206e6f74206f60008201527f776e6572206e6f7220617070726f766564000000000000000000000000000000602082015250565b61314a81612981565b811461315557600080fd5b50565b61316181612993565b811461316c57600080fd5b50565b6131788161299f565b811461318357600080fd5b50565b61318f816129eb565b811461319a57600080fd5b5056fea2646970667358221220ad83d68cf71e56d37b61c0338d3923813f6987e596fb4f3be629e87df3cef19f64736f6c63430008050033",
  "linkReferences": {},
  "deployedLinkReferences": {}
}